:0400000007EF00F016
:0A0008006B82DCED0CF0A6EF15F0A2
:10100000003738392F3435362A3132332D23303DED
:051010002B2569000022
:10101600000E0001EA6F000EEB6F000EEC6F000E83
:10102600ED6F30EF0AF0AC98AC94B89644C0D9FF97
:1010360045C0DAFFDECF15F0DECF16F0DECF17F0B3
:10104600DECF18F0000EC4EC10F015C027F016C065
:1010560028F017C029F018C02AF0000E236E240EBF
:10106600246EF40E256E4A0E266EF7EC0EF023C0A3
:10107600EEF024C0EFF025C0F0F026C0F1F0000E2F
:10108600276E000E286E800E296E420E2A6EEEC066
:1010960023F0EFC024F0F0C025F0F1C026F0F7EC05
:1010A6000EF023C03CF024C03DF025C03EF026C023
:1010B6003FF0000E406E000E416E800E426EBF0E77
:1010C600436E7BEC0AF03CC0EAF03DC0EBF03EC05C
:1010D600ECF03FC0EDF05BEF0AF0AC98AC84B8964C
:1010E60044C0D9FF45C0DAFFDECF15F0DECF16F0DB
:1010F600DECF17F0DECF18F0000EC4EC10F015C0EE
:1011060027F016C028F017C029F018C02AF0000EE4
:10111600236E240E246EF40E256E4A0E266EF7EC10
:101126000EF023C0EEF024C0EFF025C0F0F026C08C
:10113600F1F0000E276E000E286E800E296E410E0D
:101146002A6EEEC023F0EFC024F0F0C025F0F1C007
:1011560026F0F7EC0EF023C03CF024C03DF025C08D
:101166003EF026C03FF0000E406E000E416E800E2F
:10117600426EBF0E436E7BEC0AF03CC0EAF03DC007
:10118600EBF03EC0ECF03FC0EDF05BEF0AF0AC9840
:10119600AC94B88644C0D9FF45C0DAFFDECF15F05F
:1011A600DECF16F0DECF17F0DECF18F0000EC4EC5F
:1011B60010F015C027F016C028F017C029F018C087
:1011C6002AF0000E236E240E246EF40E256E4A0EAF
:1011D600266EF7EC0EF023C0EEF024C0EFF025C02B
:1011E600F0F026C0F1F0000E276E000E286E800E7D
:1011F600296E410E2A6EEEC023F0EFC024F0F0C037
:1012060025F0F1C026F0F7EC0EF023C03CF024C028
:101216003DF025C03EF026C03FF0000E406E000EA9
:10122600416E800E426EBF0E436E7BEC0AF03CC0F0
:10123600EAF03DC0EBF03EC0ECF03FC0EDF05BEFF6
:101246000AF0AC98AC84B88644C0D9FF45C0DAFF32
:10125600DECF15F0DECF16F0DECF17F0DECF18F0BA
:10126600000EC4EC10F015C027F016C028F017C009
:1012760029F018C02AF0000E236E240E246EF40EF8
:10128600256E4A0E266EF7EC0EF023C0EEF024C053
:10129600EFF025C0F0F026C0F1F0000E276E000E2C
:1012A600286E800E296E400E2A6EEEC023F0EFC027
:1012B60024F0F0C025F0F1C026F0F7EC0EF023C0C4
:1012C6003CF024C03DF025C03EF026C03FF0000EA5
:1012D600406E000E416E800E426EBF0E436E7BEC7A
:1012E6000AF03CC0EAF03DC0EBF03EC0ECF03FC077
:1012F600EDF05BEF0AF0AC88B89644C0D9FF45C064
:10130600DAFFDECF15F0DECF16F0DECF17F0DECF38
:1013160018F0000EC4EC10F015C027F016C028F027
:1013260017C029F018C02AF0000E236E240E246E72
:10133600F40E256E4A0E266EF7EC0EF023C0EEF084
:1013460024C0EFF025C0F0F026C0F1F0000E276EA5
:10135600000E286E800E296E400E2A6EEEC023F017
:10136600EFC024F0F0C025F0F1C026F0F7EC0EF047
:1013760023C03CF024C03DF025C03EF026C03FF01F
:10138600000E406E000E416E800E426EBF0E436E22
:101396007BEC0AF03CC0EAF03DC0EBF03EC0ECF05E
:1013A6003FC0EDF05BEF0AF0AC88B88644C0D9FFC9
:1013B60045C0DAFFDECF15F0DECF16F0DECF17F030
:1013C600DECF18F0000EC4EC10F015C027F016C0E2
:1013D60028F017C029F018C02AF0000E236E240E3C
:1013E600246EF40E256E4A0E266EF7EC0EF023C020
:1013F600EEF024C0EFF025C0F0F026C0F1F0000EAC
:10140600276E000E286E800E296E400E2A6EEEC0E4
:1014160023F0EFC024F0F0C025F0F1C026F0F7EC81
:101426000EF023C03CF024C03DF025C03EF026C09F
:101436003FF0000E406E000E416E800E426EBF0EF3
:10144600436E7BEC0AF03CC0EAF03DC0EBF03EC0D8
:10145600ECF03FC0EDF05BEF0AF020EE04F04450F4
:10146600D9264550DA22DF50E86FE96BE951000AC8
:10147600D8B440EF0AF05BEF0AF0E851000AD8B49E
:1014860016EF08F0010AD8B470EF08F0030AD8B4D2
:10149600CAEF08F0010AD8B424EF09F0070AD8B455
:1014A6007EEF09F0010AD8B4D7EF09F05BEF0AF036
:1014B600EAC015F0EBC016F0ECC017F0EDC018F05E
:1014C60067EC13F01550AF6EEAC015F0EBC016F0DE
:1014D600ECC017F0EDC018F067EC13F016C015F06D
:1014E60017C016F018C017F0186A1550B06E120023
:1014F6003F50800B0001E46F3F503F24E66F3EAE45
:1015060087EF0AF089EF0AF08AEF0AF0E681E651E2
:10151600D8B490EF0AF092EF0AF0A7EF0AF0E629A6
:10152600D8A498EF0AF09AEF0AF0A2EF0AF0000E9C
:101536003C6E000E3D6E000E3E6E000E3F6E3E8E01
:10154600000E3F6EAFEF0AF0000E3C6E000E3D6ED1
:10155600000E3E6E000E3F6E4350800BE56FE45169
:10156600E519D8B4B9EF0AF0BBEF0AF0BCEF0AF000
:10157600E48D43504324E56F42AEC4EF0AF0C6EF54
:101586000AF0C7EF0AF0E581E551D8B4CDEF0AF0CD
:10159600CFEF0AF0E4EF0AF0E529D8A4D5EF0AF078
:1015A600D7EF0AF0DFEF0AF0000E406E000E416E34
:1015B600000E426E000E436E428E000E436EECEF3E
:1015C6000AF0000E406E000E416E000E426E000ED6
:1015D600436EE651E55DD8B0F3EF0AF0F5EF0AF099
:1015E6001CEF0BF0E4ADFAEF0AF0FCEF0AF0FEEFA9
:1015F6000AF0800EE41BE6C0E7F0E5C0E6F0E7C0BF
:10160600E5F03CC0E7F040C03CF0E7C040F03DC02C
:10161600E7F041C03DF0E7C041F03EC0E7F042C010
:101626003EF0E7C042F03FC0E7F043C03FF0E7C0FE
:1016360043F0000EE76FE651E5C0E0F0E16BE05FD6
:10164600000EE15BE1BF31EF0BF0E15109E11A0E4B
:10165600E05DD8A031EF0BF033EF0BF06AEF0BF043
:101666003C503D103E103F10D8A43CEF0BF03FEF2E
:101676000BF0010E40EF0BF0000EE76F000E3C6E14
:10168600000E3D6E000E3E6E000E3F6EE5C0E6F0AB
:1016960073EF0BF0E7A152EF0BF054EF0BF05AEF9C
:1016A6000BF0D890E7310109E76F5CEF0BF0D890AB
:1016B600E7333CA061EF0BF063EF0BF064EF0BF048
:1016C600E78F3F343F323E323D323C32E62BE55126
:1016D600E65DD8A071EF0BF073EF0BF04DEF0BF05A
:1016E600E4BD78EF0BF07AEF0BF0BAEF0BF0E651B2
:1016F600D8A480EF0BF082EF0BF08CEF0BF0000E0E
:101706003C6E000E3D6E000E3E6E000E3F6EDBEF31
:101716000CF040503C2641503D2242503E22435060
:101726003F223FA099EF0BF09BEF0BF047EF0CF039
:10173600E7A1A0EF0BF0A2EF0BF0A8EF0BF0D8900B
:10174600E7310109E76FAAEF0BF0D890E7333CA029
:10175600AFEF0BF0B1EF0BF0B2EF0BF0E78F3F34CA
:101766003F323E323D323C32E62B47EF0CF04050E2
:101776003C5C41503D5842503E583F50800AE06F15
:101786004350800AE059D8B0CBEF0BF0CDEF0BF009
:10179600F8EF0BF03C50405CE06F3D504158E16F74
:1017A6003E504258E26F3F504358E36FFF0EE0252C
:1017B6003C6EFF0EE1213D6EFF0EE2213E6EFF0EF6
:1017C600E3213F6E800EE41BE76DE751D8A4EEEFF0
:1017D6000BF0F0EF0BF000EF0CF0010E3C26000EC4
:1017E6003D223E223F2200EF0CF040503C5E41502D
:1017F6003D5A42503E5A43503F5A3C503D103E10CF
:101806003F10D8A409EF0CF00BEF0CF040EF0CF0F2
:10181600E751D8A411EF0CF013EF0CF040EF0CF0E9
:10182600000E3C6E000E3D6E000E3E6E000E3F6ECC
:10183600DBEF0CF0D8903C363D363E363F36E7AF10
:1018460027EF0CF029EF0CF02AEF0CF03C80E7A113
:101856002FEF0CF031EF0CF035EF0CF0D880E737B6
:1018660037EF0CF0D890E737E651D8B43DEF0CF0DF
:101876003FEF0CF040EF0CF0E6073EAE45EF0CF004
:1018860047EF0CF01DEF0CF0000EE56FE7AF4EEFE3
:101896000CF050EF0CF068EF0CF0E7C0E0F07F0EB4
:1018A600E017D8B459EF0CF05BEF0CF05FEF0CF0DB
:1018B600010EE56F68EF0CF03CA064EF0CF066EFEC
:1018C6000CF068EF0CF05BEF0CF0E551D8B46EEF5E
:1018D6000CF070EF0CF09BEF0CF0010E3C26000EA6
:1018E6003D223E223F223FA07BEF0CF07DEF0CF025
:1018F6009BEF0CF03CC0E0F03DC0E1F03EC0E2F0F2
:101906003FC0E3F0E335E333E233E133E033E0C0F5
:101916003CF0E1C03DF0E2C03EF0E3C03FF0E62916
:10192600D8B498EF0CF09AEF0CF09BEF0CF0E62B86
:10193600E629D8B4A1EF0CF0A3EF0CF0ABEF0CF056
:10194600E651D8A4A9EF0CF0ABEF0CF0BDEF0CF00C
:10195600000E3C6E000E3D6E000E3E6E000E3F6E9B
:10196600E651D8A4B9EF0CF0BBEF0CF0BDEF0CF0CC
:10197600000EE46FE6A1C2EF0CF0C4EF0CF0C7EF67
:101986000CF03E8EC8EF0CF03E9ED890E6313F6ECE
:10199600E4AFD0EF0CF0D2EF0CF0D3EF0CF03F8EAB
:1019A6003CC03CF03DC03DF03EC03EF03FC03FF085
:1019B60012000600FACF0FF0FBCF10F0D9CF11F0CE
:1019C600DACF12F0F3CF13F0F4CF14F0F2A8EEEF63
:1019D6000CF0F0EF0CF0F9EF0CF0F2A2F5EF0CF0D2
:1019E600F7EF0CF0F9EF0CF0EBEC16F0F0A6FEEFCB
:1019F6000CF000EF0DF009EF0DF0F0A005EF0DF083
:101A060007EF0DF009EF0DF0E9EC16F0F0A80EEF78
:101A16000DF010EF0DF019EF0DF0F0A215EF0DF02F
:101A260017EF0DF019EF0DF0E7EC16F0F2A61EEF2A
:101A36000DF020EF0DF03BEF0DF0F2A025EF0DF0CD
:101A460027EF0DF03BEF0DF081A82CEF0DF02EEFF8
:101A56000DF03BEF0DF06804D8A434EF0DF036EF2F
:101A66000DF03BEF0DF0000E686E000EA7EC16F0C1
:101A7600F2A640EF0DF042EF0DF05DEF0DF0F2A093
:101A860047EF0DF049EF0DF05DEF0DF081B84EEF29
:101A96000DF050EF0DF05DEF0DF06850D8A456EF45
:101AA6000DF058EF0DF05DEF0DF0010E686E010EB2
:101AB600A7EC16F0F2A662EF0DF064EF0DF07FEFE3
:101AC6000DF0F2A069EF0DF06BEF0DF07FEF0DF06A
:101AD60081AA70EF0DF072EF0DF07FEF0DF0670445
:101AE600D8A478EF0DF07AEF0DF07FEF0DF0000E31
:101AF600676E000E9AEC16F0F2A684EF0DF086EFF4
:101B06000DF0A1EF0DF0F2A08BEF0DF08DEF0DF0C3
:101B1600A1EF0DF081BA92EF0DF094EF0DF0A1EF69
:101B26000DF06750D8A49AEF0DF09CEF0DF0A1EFE1
:101B36000DF0010E676E010E9AEC16F0F2A6A6EFF6
:101B46000DF0A8EF0DF0C3EF0DF0F2A0ADEF0DF024
:101B5600AFEF0DF0C3EF0DF081ACB4EF0DF0B6EFC3
:101B66000DF0C3EF0DF06604D8A4BCEF0DF0BEEF88
:101B76000DF0C3EF0DF0000E666E000E8DEC16F044
:101B8600F2A6C8EF0DF0CAEF0DF0E5EF0DF0F2A0EA
:101B9600CFEF0DF0D1EF0DF0E5EF0DF081BCD6EFF4
:101BA6000DF0D8EF0DF0E5EF0DF06650D8A4DEEF9E
:101BB6000DF0E0EF0DF0E5EF0DF0010E666E010E93
:101BC6008DEC16F0F2A6EAEF0DF0ECEF0DF007EF54
:101BD6000EF0F2A0F1EF0DF0F3EF0DF007EF0EF0BF
:101BE60081AEF8EF0DF0FAEF0DF007EF0EF0650499
:101BF600D8A400EF0EF002EF0EF007EF0EF0000E85
:101C0600656E000E80EC16F0F2A60CEF0EF00EEFED
:101C16000EF029EF0EF0F2A013EF0EF015EF0EF016
:101C260029EF0EF081BE1AEF0EF01CEF0EF029EF31
:101C36000EF06550D8A422EF0EF024EF0EF029EF37
:101C46000EF0010E656E010E80EC16F09DAC2EEFC7
:101C56000EF030EF0EF039EF0EF09EAC35EF0EF0D1
:101C660037EF0EF039EF0EF0F3EC16F0F2AA3EEF76
:101C76000EF040EF0EF049EF0EF0F2A445EF0EF035
:101C860047EF0EF049EF0EF0D9EC16F09DA04EEF9F
:101C96000EF050EF0EF059EF0EF09EA055EF0EF03D
:101CA60057EF0EF059EF0EF0D3EC16F09DA25EEF53
:101CB6000EF060EF0EF069EF0EF09EA265EF0EF0EB
:101CC60067EF0EF069EF0EF0DFEC16F0A0A26EEFF4
:101CD6000EF070EF0EF079EF0EF0A1A275EF0EF098
:101CE60077EF0EF079EF0EF0CDEC16F09DA87EEFB3
:101CF6000EF080EF0EF089EF0EF09EA885EF0EF045
:101D060087EF0EF089EF0EF0EDEC16F09DAA8EEF40
:101D16000EF090EF0EF099EF0EF09EAA95EF0EF0F2
:101D260097EF0EF099EF0EF048EC16F09DA69EEF99
:101D36000EF0A0EF0EF0A9EF0EF09EA6A5EF0EF0A6
:101D4600A7EF0EF0A9EF0EF0E3EC16F0A0A6AEEFAB
:101D56000EF0B0EF0EF0B9EF0EF0A1A6B5EF0EF053
:101D6600B7EF0EF0B9EF0EF0E5EC16F09DA6BEEF5C
:101D76000EF0C0EF0EF0C9EF0EF09EA6C5EF0EF006
:101D8600C7EF0EF0C9EF0EF0F6EC16F09DA4CEEFFD
:101D96000EF0D0EF0EF0D9EF0EF09EA4D5EF0EF0B8
:101DA600D7EF0EF0D9EF0EF0F1EC16F0A0A0DEEFB3
:101DB6000EF0E0EF0EF0E9EF0EF0A1A0E5EF0EF069
:101DC600E7EF0EF0E9EF0EF0EFEC16F014C0F4FFBB
:101DD60013C0F3FF12C0DAFF11C0D9FF10C0FBFF1A
:101DE6000FC0FAFF6B9211002650800B336E2650FF
:101DF60026243A6E25AE02EF0FF004EF0FF005EF42
:101E06000FF03A803A50D8B40BEF0FF00DEF0FF009
:101E160022EF0FF03A28D8A413EF0FF015EF0FF0CA
:101E26001DEF0FF0000E236E000E246E000E256EC1
:101E3600000E266E258E000E266E2AEF0FF0000E7F
:101E4600236E000E246E000E256E000E266E2A509E
:101E5600800B331A2A502A243B6E29AE35EF0FF039
:101E660037EF0FF038EF0FF03B803B50D8B43EEF22
:101E76000FF040EF0FF055EF0FF03B28D8A446EFD8
:101E86000FF048EF0FF050EF0FF0000E276E000E28
:101E9600286E000E296E000E2A6E298E000E2A6EFE
:101EA6005DEF0FF0000E276E000E286E000E296EF5
:101EB600000E2A6E2750281029102A10D8A466EF83
:101EC6000FF068EF0FF080EF0FF0000E236E000E9C
:101ED600246E000E256E000E266E800E25127F0ED5
:101EE60026123350261223C023F024C024F025C026
:101EF60025F026C026F0C3EF10F03A50D8A486EF9E
:101F06000FF088EF0FF092EF0FF0000E236E000E29
:101F1600246E000E256E000E266EC3EF10F03B50A9
:101F26003AC02BF02C6A2B5E000E2C5A7F0E2B2407
:101F3600346E000E2C20356E23C02FF024C030F0F6
:101F460025C031F026C032F0000E236E000E246E3E
:101F5600000E256E000E266E000E366E000E376ED3
:101F6600000E386E000E396E000E3B6EF3EF0FF06A
:101F76003B50D8B4C1EF0FF0C3EF0FF0DAEF0FF01C
:101F8600D8902F36303631363236D890233624362E
:101F96002536263639AED2EF0FF0D4EF0FF0D5EF57
:101FA6000FF02380D89036363736383639362750F4
:101FB6002F5C28503058295031582A503258D8A012
:101FC600E7EF0FF0E9EF0FF0F2EF0FF0398C275043
:101FD6002F5E2850305A2950315A2A50325A3B2AFD
:101FE600190E3B64F9EF0FF0FBEF0FF0BBEF0FF0AC
:101FF6002F50301031103210D8B404EF10F006EF25
:1020060010F01EEF10F036801EEF10F0D890233639
:1020160024362536263639AE13EF10F015EF10F0BC
:1020260016EF10F02380D8903636373638363936E4
:102036003406D8A0350625AE23EF10F025EF10F0B4
:1020460009EF10F0000E3B6E39AE2CEF10F02EEFBC
:1020560010F052EF10F0FF0E36142B6EFF0E3714F1
:102066002C6EFF0E38142D6E7F0E39142E6E2B50EB
:102076002C102D102E10D8B443EF10F045EF10F0B1
:1020860049EF10F0010E3B6E52EF10F023A04EEF19
:1020960010F050EF10F052EF10F045EF10F03B50FB
:1020A600D8B458EF10F05AEF10F07EEF10F0010E92
:1020B6002326000E24222522262226A065EF10F0D4
:1020C60067EF10F07EEF10F023C02BF024C02CF049
:1020D60025C02DF026C02EF02E342E322D322C3275
:1020E6002B322BC023F02CC024F02DC025F02EC09F
:1020F60026F0344A352A35BE89EF10F0355008E10E
:102106003428D8A089EF10F08BEF10F096EF10F07E
:10211600000E356E3468000E236E000E246E000E1F
:10212600256E000E266E35BEA3EF10F0355006E183
:102136003404D8B0A1EF10F0A3EF10F0B1EF10F017
:10214600000E356E000E346E000E236E000E246EE9
:10215600000E256E000E266E000E336E34C03AF069
:102166003AA0B8EF10F0BAEF10F0BDEF10F0258EE0
:10217600BEEF10F0259ED8903A30266E74EF0FF021
:1021860012001D6E1D50D8B4CBEF10F0CDEF10F03D
:10219600EFEF10F018BED4EF10F0D2EF10F0EFEF23
:1021A60010F015C019F016C01AF017C01BF018C0B1
:1021B6001CF0191E1A1E1B1E1C1E192A000E1A229E
:1021C6001B221C2219C01FF01AC020F01BC021F0D0
:1021D6001CC022F0F7EF10F015C01FF016C020F05B
:1021E60017C021F018C022F015501610171018103D
:1021F600D8A400EF11F002EF11F00CEF11F0000E71
:10220600156E000E166E000E176E000E186E9DEF00
:1022160011F0960E1E6E16EF11F01E2AD89022327D
:10222600213220321F32000E1F14196E000E2014A8
:102236001A6E000E21141B6EFE0E22141C6E19500F
:102246001A101B101C10D8A42BEF11F02DEF11F053
:1022560010EF11F03BEF11F01E2A010E1F26000EA3
:10226600202221222222D8902232213220321F32ED
:10227600000E1F14196E000E20141A6E000E211483
:102286001B6EFF0E22141C6E19501A101B101C1008
:10229600D8A450EF11F052EF11F02FEF11F05AEFD2
:1022A60011F01E06D8901F3620362136223621BE62
:1022B6005FEF11F061EF11F069EF11F0020E1E6091
:1022C60067EF11F069EF11F054EF11F01EB06EEFE9
:1022D60011F070EF11F071EF11F0219ED8901E32BF
:1022E6001EC019F01A6A1B6A1C6A19C01CF01B6A08
:1022F6001A6A196A19501F121A5020121B502112FD
:102306001C5022121D50D8B48BEF11F08DEF11F036
:1023160095EF11F018BE94EF11F092EF11F095EFD2
:1023260011F0228E1FC015F020C016F021C017F044
:1023360022C018F01200010E1D6E15501610D8B4EA
:10234600A7EF11F0A9EF11F0BAEF11F015C0D9FF00
:1023560016C0DAFFDF30E832E832070B176E070ED9
:102366001764B8EF11F0BAEF11F01DEF12F0000E7E
:102376001D6E3EEF12F015C0D9FF16C0DAFFDF3032
:10238600E832E832070B176E010E186E172ACEEFE9
:1023960011F0D8901836172ECCEF11F01850FF0A0E
:1023A600196E15C0D9FF16C0DAFFDF50070B1A6E7B
:1023B6001A50020DC40EF324D96E000EF420DA6E04
:1023C600DECF1BF0DDCF1CF01BC0D9FF1CC0DAFF2F
:1023D6001950DF163EEF12F015C0D9FF16C0DAFF0E
:1023E600DF30E832E832070B176E010E186E172A37
:1023F600FFEF11F0D8901836172EFDEF11F015C02B
:10240600D9FF16C0DAFFDF50070B196E1950020DFF
:10241600C40EF324D96E000EF420DA6EDECF1AF065
:10242600DDCF1BF01AC0D9FF1BC0DAFF1850DF1230
:102436003EEF12F015C0D9FF16C0DAFFDFBC26EF5B
:1024460012F029EF12F0010E2AEF12F0000E176EAD
:10245600186A1850000AD8B433EF12F0BAEF11F028
:102466001750000AD8B4BEEF11F0010AD8B4EFEF46
:1024760011F0BAEF11F01D501200010E1E6E15502C
:102486001610D8B449EF12F04BEF12F05CEF12F0D1
:1024960015C0D9FF16C0DAFFDF30E832E832070B85
:1024A600186E070E18645AEF12F05CEF12F0BFEFC9
:1024B60012F0000E1E6ED4EF12F015C0D9FF16C032
:1024C600DAFFDF30E832E832070B186E010E196EBC
:1024D600182A70EF12F0D8901936182E6EEF12F0F7
:1024E6001950FF0A1A6E15C0D9FF16C0DAFFDF5061
:1024F600070B1B6E1B50020DBA0EF324D96E000E8D
:10250600F420DA6EDECF1CF0DDCF1DF01CC0D9FF43
:102516001DC0DAFF1A50DF16D4EF12F015C0D9FF2E
:1025260016C0DAFFDF30E832E832070B186E010E0C
:10253600196E182AA1EF12F0D8901936182E9FEFAF
:1025460012F015C0D9FF16C0DAFFDF50070B1A6E5E
:102556001A50020DBA0EF324D96E000EF420DA6E6C
:10256600DECF1BF0DDCF1CF01BC0D9FF1CC0DAFF8D
:102576001950DF12D4EF12F01750186E196A19505D
:10258600000AD8B4C9EF12F05CEF12F01850000A36
:10259600D8B460EF12F0010AD8B491EF12F05CEFF4
:1025A60012F01E50120001500210D8B4DDEF12F0E6
:1025B600DFEF12F0F0EF12F001C0D9FF02C0DAFF30
:1025C600DF30E832E832070B046E070E0464EEEFE4
:1025D60012F0F0EF12F051EF13F066EF13F001C0B6
:1025E600D9FF02C0DAFFDF30E832E832070B046EAB
:1025F600010E056E042A02EF13F0D8900536042E5C
:1026060000EF13F00550FF0A066E01C0D9FF02C0A5
:10261600DAFFDF50070B076E0750020DBA0EF324E0
:10262600D96E000EF420DA6EDECF08F0DDCF09F0A9
:1026360008C0D9FF09C0DAFF0650DF1666EF13F0AF
:1026460001C0D9FF02C0DAFFDF30E832E832070BFB
:10265600046E010E056E042A33EF13F0D89005368A
:10266600042E31EF13F001C0D9FF02C0DAFFDF50AC
:10267600070B066E0650020DBA0EF324D96E000E35
:10268600F420DA6EDECF07F0DDCF08F007C0D9FF01
:1026960008C0DAFF0550DF1266EF13F00350046E30
:1026A600056A0550000AD8B45BEF13F0F0EF12F09C
:1026B6000450000AD8B4F2EF12F0010AD8B423EF9E
:1026C60013F0F0EF12F01200173418341E6E1E507D
:1026D600D8A470EF13F072EF13F07CEF13F0000E36
:1026E600156E000E166E000E176E000E186EE9EFD0
:1026F60013F015C019F016C01AF017C01BF018C059
:102706001CF0200E8CEF13F0D8901C321B321A32BC
:102716001932E82E87EF13F019501D6E178EFF0E33
:102726001516FF0E1616FF0E1716000E1816960E25
:102736001E5E1EBEA3EF13F0A1EF13F0B9EF13F068
:102746001E50800A970FD8B0ABEF13F0ADEF13F021
:10275600AFEF13F072EF13F0D8901832173216322B
:1027660015321E3EAFEF13F0D1EF13F01F0E1E64AD
:10277600BFEF13F0C1EF13F0C9EF13F072EF13F0D0
:10278600D89015361636173618361E061E50D8A49B
:10279600CFEF13F0D1EF13F0C3EF13F01D50D8B401
:1027A600D7EF13F0D9EF13F0E1EF13F0181E171E51
:1027B600161E156C000E16221722182215C015F0CB
:1027C60016C016F017C017F018C018F0120020EE49
:1027D60008F01550D9261650DA22DFA0F5EF13F0CF
:1027E600F7EF13F057EF14F0AB8820EE0CF015500E
:1027F600D9261650DA22DECF47F0DDCF48F020EE9C
:102806000EF01550D9261650DA22DECF88F0DDCF2D
:1028160089F020EE10F01550D9261650DA22DECFB8
:1028260086F0DDCF87F020EE08F01550D926165039
:10283600DA22DFA221EF14F023EF14F029EF14F0CF
:102846009D8A9D8AF28EF28C37EF14F020EE08F006
:102856001550D9261650DA22DFB234EF14F036EFCF
:1028660014F037EF14F09D9A20EE08F01550D92693
:102876001650DA22DFA442EF14F044EF14F047EFCB
:1028860014F0AB8C57EF14F020EE08F01550D92653
:102896001650DA22DFB452EF14F054EF14F057EF6B
:1028A60014F0AB9C57EF14F0120020EE06F0155012
:1028B600D9261650DA22DFA063EF14F065EF14F084
:1028C600B1EF14F0AC8A20EE0AF01550D926165056
:1028D600DA22DECF8AF0DDCF8BF020EE06F015503F
:1028E600D9261650DA22DFA27BEF14F07DEF14F022
:1028F60083EF14F09D889D88F28EF28C91EF14F090
:1029060020EE06F01550D9261650DA22DFB28EEFE9
:1029160014F090EF14F091EF14F09D9820EE06F06D
:102926001550D9261650DA22DFA49CEF14F09EEF3C
:1029360014F0A1EF14F0AC8CB1EF14F020EE06F019
:102946001550D9261650DA22DFB4ACEF14F0AEEFEC
:1029560014F0B1EF14F0AC9CB1EF14F01200010EBC
:102966000D6E0A500B10D8A4BBEF14F0BDEF14F097
:10297600C1EF14F0000E0D6EF0EF14F05BC00EF018
:102986000AC0D9FF0BC0DAFFDF500F0B0C6E0E50DA
:102996000C18F80B0C180E6E0AC0D9FF0BC0DAFF24
:1029A600DF38070B0C6E0C460C460C460E500C1806
:1029B600C70B0C180E6E0E9C0AC0D9FF0BC0DAFFAF
:1029C600DFAE02D00E8E01D00E9E0E0E016E000EF0
:1029D600026E010E036ED6EC12F00D501200010EBF
:1029E6000D6E0A500B10D8A4FBEF14F0FDEF14F097
:1029F60001EF15F0000E0D6E30EF15F05AC00EF017
:102A06000AC0D9FF0BC0DAFFDF500F0B0C6E0E5059
:102A16000C18F80B0C180E6E0AC0D9FF0BC0DAFFA3
:102A2600DF38070B0C6E0C460C460C460E500C1885
:102A3600C70B0C180E6E0E9C0AC0D9FF0BC0DAFF2E
:102A4600DFAE02D00E8E01D00E9E0E0E016E000E6F
:102A5600026E000E036ED6EC12F00D501200010E3F
:102A6600266E23502410D8A43BEF15F03DEF15F049
:102A760041EF15F0000E266E6EEF15F05CC027F0E4
:102A860023C0D9FF24C0DAFFDF500F0B256E275075
:102A96002518F80B2518276E23C0D9FF24C0DAFFA6
:102AA600DF38070B256E254625462546275025186F
:102AB600C70B2518276E279C23C0D9FF24C0DAFF31
:102AC600DFAE02D0278E01D0279E270E1F6E000E86
:102AD600206E70EC15F0265012001F502010D8B44E
:102AE60077EF15F079EF15F08AEF15F01FC0D9FFD3
:102AF60020C0DAFFDF30E832E832070B216E070E1E
:102B0600216488EF15F08AEF15F08EEF15F0000EB0
:102B1600226EA4EF15F01FC015F020C016F09EEC33
:102B260011F0226E1FC015F020C016F01FC0D9FF8D
:102B360020C0DAFF000EDFBE010E176E40EC12F069
:102B4600226E22501200600EF66E2C0EF76E000EEC
:102B5600F86E00EEB0F010EE30F00900F5CFEEFFA3
:102B6600E550E150FAE1820EF66E2D0EF76E000E7C
:102B7600F86E00EE5EF010EE0CF00900F5CFEEFFF9
:102B8600E550E150FAE100EE80F0300EEE6AE8061C
:102B9600FDE100EE47F0170EEE6AE806FDE16B90E8
:102BA6006B920001C7EF16F05D0E016E000E026E0D
:102BB60072EC16F0610E5D18D8A4E4EF15F0E6EF9E
:102BC60015F0F3EF15F0690E0A6E000E0B6EB2ECFF
:102BD60014F06A6E630EB4EC16F06A6E07EF16F028
:102BE600620E5D18D8A4FAEF15F0FCEF15F007EFAA
:102BF60016F0690E0A6E000E0B6EF2EC14F06A6E99
:102C0600640EB4EC16F06A6E12000001F251F31174
:102C1600D8A410EF16F012EF16F016EF16F0000E0D
:102C2600466E2EEF16F0AB9E948E948CF2C044F056
:102C3600F3C045F00BEC08F0F2C015F0F3C016F047
:102C460058EC14F0F2C015F0F3C016F0EAEC13F0ED
:102C5600AB8E010E466E46501200800F810F820F1A
:102C6600830F840F890F8A0F8B0F8C0F8D0F920F96
:102C7600930F940F950F960F802500000000030018
:102C860003000000AE2B0000000047504810D8B4E7
:102C96004FEF16F051EF16F05FEF16F002D85DEF2A
:102CA60016F00500FA6E4750FD6E4850FE6EFF6A3C
:102CB600FA5012005FEF16F01200F5EC16F0690EEE
:102CC600236E000E246E32EC15F06A6ECE0E0001F5
:102CD600F26F000EF36F08EC16F06A6E12009EAAF1
:102CE60077EF16F079EF16F072EF16F001C0D9FF04
:102CF60002C0DAFFAECFDFFF1200016EF290015084
:102D0600D8A488EF16F08AEF16F08CEF16F08CEF49
:102D160016F01200016EF2900150D8A495EF16F04D
:102D260097EF16F099EF16F099EF16F01200016E74
:102D3600F2900150D8A4A2EF16F0A4EF16F0A6EF79
:102D460016F0A6EF16F01200016EF2900150D8A40C
:102D5600AFEF16F0B1EF16F0B3EF16F0B3EF16F0D3
:102D66001200016EACA2BAEF16F0BCEF16F0B5EF8A
:102D760016F09D8801C0ADFF010E1200685A622A46
:102D86001A622A010101010360EC16F0C9EF16F080
:102D960007EF00F0A1924A50B36E49C0B2FF12008D
:102DA6009E904C50CF6E4BC0CEFF1200F2944E5008
:102DB600D76E4DC0D6FF12009E9255C0CCFF1200B2
:102DC6009E961200A1961200F0921200F090120048
:102DD600F29212009D981200A19012009E94120089
:082DE6009E9C12001200120075
:020000040020DA
:08000000FFFFFFFFFFFFFFFF00
:020000040030CA
:0E000000FF020912FF8181FF0FC00FE00F40C9
:00000001FF
