:0400000007EF00F016
:0A0008006982DCED0CF0E5EF15F065
:10100000003738392F3435362A3132332D23303DED
:051010002B2569000022
:10101600000E0001EE6F000EEF6F000EF06F000E77
:10102600F16F30EF0AF0AC98AC94B896EAC0D9FFED
:10103600EBC0DAFFDECF17F0DECF18F0DECF19F007
:10104600DECF1AF0000EC4EC10F017C029F018C05D
:101056002AF019C02BF01AC02CF0000E256E240EB3
:10106600266EF40E276E4A0E286EF7EC0EF025C09B
:10107600F2F026C0F3F027C0F4F028C0F5F0000E19
:10108600296E000E2A6E800E2B6E420E2C6EF2C05A
:1010960025F0F3C026F0F4C027F0F5C028F0F7ECF1
:1010A6000EF025C03EF026C03FF027C040F028C015
:1010B60041F0000E426E000E436E800E446EBF0E6F
:1010C600456E7BEC0AF03EC0EEF03FC0EFF040C04C
:1010D600F0F041C0F1F05BEF0AF0AC98AC84B89642
:1010E600EAC0D9FFEBC0DAFFDECF17F0DECF18F08B
:1010F600DECF19F0DECF1AF0000EC4EC10F017C0E8
:1011060029F018C02AF019C02BF01AC02CF0000ED6
:10111600256E240E266EF40E276E4A0E286EF7EC08
:101126000EF025C0F2F026C0F3F027C0F4F028C078
:10113600F5F0000E296E000E2A6E800E2B6E410E03
:101146002C6EF2C025F0F3C026F0F4C027F0F5C0EF
:1011560028F0F7EC0EF025C03EF026C03FF027C081
:1011660040F028C041F0000E426E000E436E800E25
:10117600446EBF0E456E7BEC0AF03EC0EEF03FC0FB
:10118600EFF040C0F0F041C0F1F05BEF0AF0AC9830
:10119600AC94B886EAC0D9FFEBC0DAFFDECF17F011
:1011A600DECF18F0DECF19F0DECF1AF0000EC4EC59
:1011B60010F017C029F018C02AF019C02BF01AC079
:1011C6002CF0000E256E240E266EF40E276E4A0EA7
:1011D600286EF7EC0EF025C0F2F026C0F3F027C01B
:1011E600F4F028C0F5F0000E296E000E2A6E800E6F
:1011F6002B6E410E2C6EF2C025F0F3C026F0F4C023
:1012060027F0F5C028F0F7EC0EF025C03EF026C01A
:101216003FF027C040F028C041F0000E426E000E9D
:10122600436E800E446EBF0E456E7BEC0AF03EC0E8
:10123600EEF03FC0EFF040C0F0F041C0F1F05BEFE0
:101246000AF0AC98AC84B886EAC0D9FFEBC0DAFFE6
:10125600DECF17F0DECF18F0DECF19F0DECF1AF0B2
:10126600000EC4EC10F017C029F018C02AF019C0FF
:101276002BF01AC02CF0000E256E240E266EF40EEE
:10128600276E4A0E286EF7EC0EF025C0F2F026C047
:10129600F3F027C0F4F028C0F5F0000E296E000E1A
:1012A6002A6E800E2B6E400E2C6EF2C025F0F3C017
:1012B60026F0F4C027F0F5C028F0F7EC0EF025C0B4
:1012C6003EF026C03FF027C040F028C041F0000E97
:1012D600426E000E436E800E446EBF0E456E7BEC72
:1012E6000AF03EC0EEF03FC0EFF040C0F0F041C063
:1012F600F1F05BEF0AF0AC88B896EAC0D9FFEBC014
:10130600DAFFDECF17F0DECF18F0DECF19F0DECF32
:101316001AF0000EC4EC10F017C029F018C02AF01D
:1013260019C02BF01AC02CF0000E256E240E266E66
:10133600F40E276E4A0E286EF7EC0EF025C0F2F07A
:1013460026C0F3F027C0F4F028C0F5F0000E296E91
:10135600000E2A6E800E2B6E400E2C6EF2C025F00B
:10136600F3C026F0F4C027F0F5C028F0F7EC0EF035
:1013760025C03EF026C03FF027C040F028C041F00F
:10138600000E426E000E436E800E446EBF0E456E1A
:101396007BEC0AF03EC0EEF03FC0EFF040C0F0F04C
:1013A60041C0F1F05BEF0AF0AC88B886EAC0D9FF1D
:1013B600EBC0DAFFDECF17F0DECF18F0DECF19F084
:1013C600DECF1AF0000EC4EC10F017C029F018C0DA
:1013D6002AF019C02BF01AC02CF0000E256E240E30
:1013E600266EF40E276E4A0E286EF7EC0EF025C018
:1013F600F2F026C0F3F027C0F4F028C0F5F0000E96
:10140600296E000E2A6E800E2B6E400E2C6EF2C0D8
:1014160025F0F3C026F0F4C027F0F5C028F0F7EC6D
:101426000EF025C03EF026C03FF027C040F028C091
:1014360041F0000E426E000E436E800E446EBF0EEB
:10144600456E7BEC0AF03EC0EEF03FC0EFF040C0C8
:10145600F0F041C0F1F05BEF0AF020EE04F0EA5143
:10146600D926EB51DA22DF50EC6FED6BED51000A15
:10147600D8B440EF0AF05BEF0AF0EC51000AD8B49A
:1014860016EF08F0010AD8B470EF08F0030AD8B4D2
:10149600CAEF08F0010AD8B424EF09F0070AD8B455
:1014A6007EEF09F0010AD8B4D7EF09F05BEF0AF036
:1014B600EEC017F0EFC018F0F0C019F0F1C01AF046
:1014C60067EC13F01750AF6EEEC017F0EFC018F0D0
:1014D600F0C019F0F1C01AF067EC13F018C017F05D
:1014E60019C018F01AC019F01A6A1750B06E120017
:1014F6004150800B0001E66F41504124E86F40AE39
:1015060087EF0AF089EF0AF08AEF0AF0E881E851DE
:10151600D8B490EF0AF092EF0AF0A7EF0AF0E829A4
:10152600D8A498EF0AF09AEF0AF0A2EF0AF0000E9C
:101536003E6E000E3F6E000E406E000E416E408EF7
:10154600000E416EAFEF0AF0000E3E6E000E3F6ECB
:10155600000E406E000E416E4550800BE76FE6515F
:10156600E719D8B4B9EF0AF0BBEF0AF0BCEF0AF0FE
:10157600E68D45504524E76F44AEC4EF0AF0C6EF4A
:101586000AF0C7EF0AF0E781E751D8B4CDEF0AF0C9
:10159600CFEF0AF0E4EF0AF0E729D8A4D5EF0AF076
:1015A600D7EF0AF0DFEF0AF0000E426E000E436E30
:1015B600000E446E000E456E448E000E456EECEF36
:1015C6000AF0000E426E000E436E000E446E000ED0
:1015D600456EE851E75DD8B0F3EF0AF0F5EF0AF093
:1015E6001CEF0BF0E6ADFAEF0AF0FCEF0AF0FEEFA7
:1015F6000AF0800EE61BE8C0E9F0E7C0E8F0E9C0B3
:10160600E7F03EC0E9F042C03EF0E9C042F03FC01C
:10161600E9F043C03FF0E9C043F040C0E9F044C000
:1016260040F0E9C044F041C0E9F045C041F0E9C0EE
:1016360045F0000EE96FE851E7C0E2F0E36BE25FC8
:10164600000EE35BE3BF31EF0BF0E35109E11A0E45
:10165600E25DD8A031EF0BF033EF0BF06AEF0BF041
:101666003E503F1040104110D8A43CEF0BF03FEF26
:101676000BF0010E40EF0BF0000EE96F000E3E6E10
:10168600000E3F6E000E406E000E416EE7C0E8F0A1
:1016960073EF0BF0E9A152EF0BF054EF0BF05AEF9A
:1016A6000BF0D890E9310109E96F5CEF0BF0D890A7
:1016B600E9333EA061EF0BF063EF0BF064EF0BF044
:1016C600E98F4134413240323F323E32E82BE75116
:1016D600E85DD8A071EF0BF073EF0BF04DEF0BF058
:1016E600E6BD78EF0BF07AEF0BF0BAEF0BF0E851AE
:1016F600D8A480EF0BF082EF0BF08CEF0BF0000E0E
:101706003E6E000E3F6E000E406E000E416EDBEF29
:101716000CF042503E2643503F2244504022455052
:10172600412241A099EF0BF09BEF0BF047EF0CF035
:10173600E9A1A0EF0BF0A2EF0BF0A8EF0BF0D89009
:10174600E9310109E96FAAEF0BF0D890E9333EA021
:10175600AFEF0BF0B1EF0BF0B2EF0BF0E98F4134C6
:10176600413240323F323E32E82B47EF0CF04250D6
:101776003E5C43503F58445040584150800AE26F07
:101786004550800AE259D8B0CBEF0BF0CDEF0BF005
:10179600F8EF0BF03E50425CE26F3F504358E36F68
:1017A60040504458E46F41504558E56FFF0EE2251E
:1017B6003E6EFF0EE3213F6EFF0EE421406EFF0EEC
:1017C600E521416E800EE61BE96DE951D8A4EEEFE6
:1017D6000BF0F0EF0BF000EF0CF0010E3E26000EC2
:1017E6003F224022412200EF0CF042503E5E435021
:1017F6003F5A4450405A4550415A3E503F104010BF
:101806004110D8A409EF0CF00BEF0CF040EF0CF0F0
:10181600E951D8A411EF0CF013EF0CF040EF0CF0E7
:10182600000E3E6E000E3F6E000E406E000E416EC4
:10183600DBEF0CF0D8903E363F3640364136E9AF06
:1018460027EF0CF029EF0CF02AEF0CF03E80E9A10F
:101856002FEF0CF031EF0CF035EF0CF0D880E937B4
:1018660037EF0CF0D890E937E851D8B43DEF0CF0DB
:101876003FEF0CF040EF0CF0E80740AE45EF0CF000
:1018860047EF0CF01DEF0CF0000EE76FE9AF4EEFDF
:101896000CF050EF0CF068EF0CF0E9C0E2F07F0EB0
:1018A600E217D8B459EF0CF05BEF0CF05FEF0CF0D9
:1018B600010EE76F68EF0CF03EA064EF0CF066EFE8
:1018C6000CF068EF0CF05BEF0CF0E751D8B46EEF5C
:1018D6000CF070EF0CF09BEF0CF0010E3E26000EA4
:1018E6003F224022412241A07BEF0CF07DEF0CF01D
:1018F6009BEF0CF03EC0E2F03FC0E3F040C0E4F0E6
:1019060041C0E5F0E535E533E433E333E233E2C0E5
:101916003EF0E3C03FF0E4C040F0E5C041F0E82906
:10192600D8B498EF0CF09AEF0CF09BEF0CF0E82B84
:10193600E829D8B4A1EF0CF0A3EF0CF0ABEF0CF054
:10194600E851D8A4A9EF0CF0ABEF0CF0BDEF0CF00A
:10195600000E3E6E000E3F6E000E406E000E416E93
:10196600E851D8A4B9EF0CF0BBEF0CF0BDEF0CF0CA
:10197600000EE66FE8A1C2EF0CF0C4EF0CF0C7EF63
:101986000CF0408EC8EF0CF0409ED890E831416EC6
:10199600E6AFD0EF0CF0D2EF0CF0D3EF0CF0418EA7
:1019A6003EC03EF03FC03FF040C040F041C041F075
:1019B60012000600FACF11F0FBCF12F0D9CF13F0C8
:1019C600DACF14F0F3CF15F0F4CF16F0F2A8EEEF5D
:1019D6000CF0F0EF0CF0F9EF0CF0F2A2F5EF0CF0D2
:1019E600F7EF0CF0F9EF0CF00AEC17F0F0A6FEEFAB
:1019F6000CF000EF0DF009EF0DF0F0A005EF0DF083
:101A060007EF0DF009EF0DF008EC17F0F0A80EEF58
:101A16000DF010EF0DF019EF0DF0F0A215EF0DF02F
:101A260017EF0DF019EF0DF006EC17F0F2A61EEF0A
:101A36000DF020EF0DF03BEF0DF0F2A025EF0DF0CD
:101A460027EF0DF03BEF0DF081A82CEF0DF02EEFF8
:101A56000DF03BEF0DF06604D8A434EF0DF036EF31
:101A66000DF03BEF0DF0000E666E000EC2EC16F0A8
:101A7600F2A640EF0DF042EF0DF05DEF0DF0F2A093
:101A860047EF0DF049EF0DF05DEF0DF081B84EEF29
:101A96000DF050EF0DF05DEF0DF06650D8A456EF47
:101AA6000DF058EF0DF05DEF0DF0010E666E010EB4
:101AB600C2EC16F0F2A662EF0DF064EF0DF07FEFC8
:101AC6000DF0F2A069EF0DF06BEF0DF07FEF0DF06A
:101AD60081AA70EF0DF072EF0DF07FEF0DF0650447
:101AE600D8A478EF0DF07AEF0DF07FEF0DF0000E31
:101AF600656E000EB5EC16F0F2A684EF0DF086EFDB
:101B06000DF0A1EF0DF0F2A08BEF0DF08DEF0DF0C3
:101B1600A1EF0DF081BA92EF0DF094EF0DF0A1EF69
:101B26000DF06550D8A49AEF0DF09CEF0DF0A1EFE3
:101B36000DF0010E656E010EB5EC16F0F2A6A6EFDD
:101B46000DF0A8EF0DF0C3EF0DF0F2A0ADEF0DF024
:101B5600AFEF0DF0C3EF0DF081ACB4EF0DF0B6EFC3
:101B66000DF0C3EF0DF06404D8A4BCEF0DF0BEEF8A
:101B76000DF0C3EF0DF0000E646E000EA8EC16F02B
:101B8600F2A6C8EF0DF0CAEF0DF0E5EF0DF0F2A0EA
:101B9600CFEF0DF0D1EF0DF0E5EF0DF081BCD6EFF4
:101BA6000DF0D8EF0DF0E5EF0DF06450D8A4DEEFA0
:101BB6000DF0E0EF0DF0E5EF0DF0010E646E010E95
:101BC600A8EC16F0F2A6EAEF0DF0ECEF0DF007EF39
:101BD6000EF0F2A0F1EF0DF0F3EF0DF007EF0EF0BF
:101BE60081AEF8EF0DF0FAEF0DF007EF0EF063049B
:101BF600D8A400EF0EF002EF0EF007EF0EF0000E85
:101C0600636E000E9BEC16F0F2A60CEF0EF00EEFD4
:101C16000EF029EF0EF0F2A013EF0EF015EF0EF016
:101C260029EF0EF081BE1AEF0EF01CEF0EF029EF31
:101C36000EF06350D8A422EF0EF024EF0EF029EF39
:101C46000EF0010E636E010E9BEC16F09DAC2EEFAE
:101C56000EF030EF0EF039EF0EF09EAC35EF0EF0D1
:101C660037EF0EF039EF0EF012EC17F0F2AA3EEF56
:101C76000EF040EF0EF049EF0EF0F2A445EF0EF035
:101C860047EF0EF049EF0EF0F8EC16F09DA04EEF80
:101C96000EF050EF0EF059EF0EF09EA055EF0EF03D
:101CA60057EF0EF059EF0EF0F2EC16F09DA25EEF34
:101CB6000EF060EF0EF069EF0EF09EA265EF0EF0EB
:101CC60067EF0EF069EF0EF0FEEC16F0A0A26EEFD5
:101CD6000EF070EF0EF079EF0EF0A1A275EF0EF098
:101CE60077EF0EF079EF0EF0ECEC16F09DA87EEF94
:101CF6000EF080EF0EF089EF0EF09EA885EF0EF045
:101D060087EF0EF089EF0EF00CEC17F09DAA8EEF20
:101D16000EF090EF0EF099EF0EF09EAA95EF0EF0F2
:101D260097EF0EF099EF0EF056EC16F09DA69EEF8B
:101D36000EF0A0EF0EF0A9EF0EF09EA6A5EF0EF0A6
:101D4600A7EF0EF0A9EF0EF002EC17F0A0A6AEEF8B
:101D56000EF0B0EF0EF0B9EF0EF0A1A6B5EF0EF053
:101D6600B7EF0EF0B9EF0EF004EC17F09DA6BEEF3C
:101D76000EF0C0EF0EF0C9EF0EF09EA6C5EF0EF006
:101D8600C7EF0EF0C9EF0EF015EC17F09DA4CEEFDD
:101D96000EF0D0EF0EF0D9EF0EF09EA4D5EF0EF0B8
:101DA600D7EF0EF0D9EF0EF010EC17F0A0A0DEEF93
:101DB6000EF0E0EF0EF0E9EF0EF0A1A0E5EF0EF069
:101DC600E7EF0EF0E9EF0EF00EEC17F016C0F4FF99
:101DD60015C0F3FF14C0DAFF13C0D9FF12C0FBFF12
:101DE60011C0FAFF699211002850800B356E2850F9
:101DF60028243C6E27AE02EF0FF004EF0FF005EF3C
:101E06000FF03C803C50D8B40BEF0FF00DEF0FF005
:101E160022EF0FF03C28D8A413EF0FF015EF0FF0C8
:101E26001DEF0FF0000E256E000E266E000E276EBB
:101E3600000E286E278E000E286E2AEF0FF0000E79
:101E4600256E000E266E000E276E000E286E2C5094
:101E5600800B351A2C502C243D6E2BAE35EF0FF02F
:101E660037EF0FF038EF0FF03D803D50D8B43EEF1E
:101E76000FF040EF0FF055EF0FF03D28D8A446EFD6
:101E86000FF048EF0FF050EF0FF0000E296E000E26
:101E96002A6E000E2B6E000E2C6E2B8E000E2C6EF4
:101EA6005DEF0FF0000E296E000E2A6E000E2B6EEF
:101EB600000E2C6E29502A102B102C10D8A466EF79
:101EC6000FF068EF0FF080EF0FF0000E256E000E9A
:101ED600266E000E276E000E286E800E27127F0ECD
:101EE60028123550281225C025F026C026F027C016
:101EF60027F028C028F0C3EF10F03C50D8A486EF96
:101F06000FF088EF0FF092EF0FF0000E256E000E27
:101F1600266E000E276E000E286EC3EF10F03D50A1
:101F26003CC02DF02E6A2D5E000E2E5A7F0E2D24FB
:101F3600366E000E2E20376E25C031F026C032F0E8
:101F460027C033F028C034F0000E256E000E266E32
:101F5600000E276E000E286E000E386E000E396ECB
:101F6600000E3A6E000E3B6E000E3D6EF3EF0FF064
:101F76003D50D8B4C1EF0FF0C3EF0FF0DAEF0FF01A
:101F8600D8903136323633363436D8902536263622
:101F9600273628363BAED2EF0FF0D4EF0FF0D5EF51
:101FA6000FF02580D890383639363A363B362950E8
:101FB600315C2A5032582B5033582C503458D8A004
:101FC600E7EF0FF0E9EF0FF0F2EF0FF03B8C29503F
:101FD600315E2A50325A2B50335A2C50345A3D2AED
:101FE600190E3D64F9EF0FF0FBEF0FF0BBEF0FF0AA
:101FF6003150321033103410D8B404EF10F006EF1D
:1020060010F01EEF10F038801EEF10F0D890253635
:102016002636273628363BAE13EF10F015EF10F0B4
:1020260016EF10F02580D890383639363A363B36DA
:102036003606D8A0370627AE23EF10F025EF10F0AE
:1020460009EF10F0000E3D6E3BAE2CEF10F02EEFB8
:1020560010F052EF10F0FF0E38142D6EFF0E3914EB
:102066002E6EFF0E3A142F6E7F0E3B14306E2D50DF
:102076002E102F103010D8B443EF10F045EF10F0AB
:1020860049EF10F0010E3D6E52EF10F025A04EEF15
:1020960010F050EF10F052EF10F045EF10F03D50F9
:1020A600D8B458EF10F05AEF10F07EEF10F0010E92
:1020B6002526000E26222722282228A065EF10F0CA
:1020C60067EF10F07EEF10F025C02DF026C02EF041
:1020D60027C02FF028C030F0303430322F322E3265
:1020E6002D322DC025F02EC026F02FC027F030C08F
:1020F60028F0364A372A37BE89EF10F0375008E104
:102106003628D8A089EF10F08BEF10F096EF10F07C
:10211600000E376E3668000E256E000E266E000E17
:10212600276E000E286E37BEA3EF10F0375006E17B
:102136003604D8B0A1EF10F0A3EF10F0B1EF10F015
:10214600000E376E000E366E000E256E000E266EE1
:10215600000E276E000E286E000E356E36C03CF05F
:102166003CA0B8EF10F0BAEF10F0BDEF10F0278EDC
:10217600BEEF10F0279ED8903C30286E74EF0FF01B
:1021860012001F6E1F50D8B4CBEF10F0CDEF10F039
:10219600EFEF10F01ABED4EF10F0D2EF10F0EFEF21
:1021A60010F017C01BF018C01CF019C01DF01AC0A3
:1021B6001EF01B1E1C1E1D1E1E1E1B2A000E1C2290
:1021C6001D221E221BC021F01CC022F01DC023F0C0
:1021D6001EC024F0F7EF10F017C021F018C022F04F
:1021E60019C023F01AC024F01750181019101A102D
:1021F600D8A400EF11F002EF11F00CEF11F0000E71
:10220600176E000E186E000E196E000E1A6E9DEFF8
:1022160011F0960E206E16EF11F0202AD890243277
:10222600233222322132000E21141B6E000E22149C
:102236001C6E000E23141D6EFE0E24141E6E1B5003
:102246001C101D101E10D8A42BEF11F02DEF11F04D
:1022560010EF11F03BEF11F0202A010E2126000E9F
:10226600222223222422D8902432233222322132DF
:10227600000E21141B6E000E22141C6E000E231479
:102286001D6EFF0E24141E6E1B501C101D101E10FA
:10229600D8A450EF11F052EF11F02FEF11F05AEFD2
:1022A60011F02006D890213622362336243623BE56
:1022B6005FEF11F061EF11F069EF11F0020E20608F
:1022C60067EF11F069EF11F054EF11F020B06EEFE7
:1022D60011F070EF11F071EF11F0239ED8902032BB
:1022E60020C01BF01C6A1D6A1E6A1BC01EF01D6AF8
:1022F6001C6A1B6A1B5021121C5022121D502312ED
:102306001E5024121F50D8B48BEF11F08DEF11F030
:1023160095EF11F01ABE94EF11F092EF11F095EFD0
:1023260011F0248E21C017F022C018F023C019F036
:1023360024C01AF01200010E1F6E17501810D8B4E0
:10234600A7EF11F0A9EF11F0BAEF11F017C0D9FFFE
:1023560018C0DAFFDF30E832E832070B196E070ED5
:102366001964B8EF11F0BAEF11F01DEF12F0000E7C
:102376001F6E3EEF12F017C0D9FF18C0DAFFDF302C
:10238600E832E832070B196E010E1A6E192ACEEFE3
:1023960011F0D8901A36192ECCEF11F01A50FF0A08
:1023A6001B6E17C0D9FF18C0DAFFDF50070B1C6E73
:1023B6001C50020DC60EF324D96E000EF420DA6E00
:1023C600DECF1DF0DDCF1EF01DC0D9FF1EC0DAFF27
:1023D6001B50DF163EEF12F017C0D9FF18C0DAFF08
:1023E600DF30E832E832070B196E010E1A6E192A31
:1023F600FFEF11F0D8901A36192EFDEF11F017C025
:10240600D9FF18C0DAFFDF50070B1B6E1B50020DF9
:10241600C60EF324D96E000EF420DA6EDECF1CF061
:10242600DDCF1DF01CC0D9FF1DC0DAFF1A50DF1228
:102436003EEF12F017C0D9FF18C0DAFFDFBC26EF57
:1024460012F029EF12F0010E2AEF12F0000E196EAB
:102456001A6A1A50000AD8B433EF12F0BAEF11F024
:102466001950000AD8B4BEEF11F0010AD8B4EFEF44
:1024760011F0BAEF11F01F501200010E206E175026
:102486001810D8B449EF12F04BEF12F05CEF12F0CF
:1024960017C0D9FF18C0DAFFDF30E832E832070B81
:1024A6001A6E070E1A645AEF12F05CEF12F0BFEFC5
:1024B60012F0000E206ED4EF12F017C0D9FF18C02C
:1024C600DAFFDF30E832E832070B1A6E010E1B6EB8
:1024D6001A2A70EF12F0D8901B361A2E6EEF12F0F1
:1024E6001B50FF0A1C6E17C0D9FF18C0DAFFDF5059
:1024F600070B1D6E1D50020DBC0EF324D96E000E87
:10250600F420DA6EDECF1EF0DDCF1FF01EC0D9FF3D
:102516001FC0DAFF1C50DF16D4EF12F017C0D9FF28
:1025260018C0DAFFDF30E832E832070B1A6E010E08
:102536001B6E1A2AA1EF12F0D8901B361A2E9FEFA7
:1025460012F017C0D9FF18C0DAFFDF50070B1C6E58
:102556001C50020DBC0EF324D96E000EF420DA6E68
:10256600DECF1DF0DDCF1EF01DC0D9FF1EC0DAFF85
:102576001B50DF12D4EF12F019501A6E1B6A1B5053
:10258600000AD8B4C9EF12F05CEF12F01A50000A34
:10259600D8B460EF12F0010AD8B491EF12F05CEFF4
:1025A60012F02050120001500210D8B4DDEF12F0E4
:1025B600DFEF12F0F0EF12F001C0D9FF02C0DAFF30
:1025C600DF30E832E832070B046E070E0464EEEFE4
:1025D60012F0F0EF12F051EF13F066EF13F001C0B6
:1025E600D9FF02C0DAFFDF30E832E832070B046EAB
:1025F600010E056E042A02EF13F0D8900536042E5C
:1026060000EF13F00550FF0A066E01C0D9FF02C0A5
:10261600DAFFDF50070B076E0750020DBC0EF324DE
:10262600D96E000EF420DA6EDECF08F0DDCF09F0A9
:1026360008C0D9FF09C0DAFF0650DF1666EF13F0AF
:1026460001C0D9FF02C0DAFFDF30E832E832070BFB
:10265600046E010E056E042A33EF13F0D89005368A
:10266600042E31EF13F001C0D9FF02C0DAFFDF50AC
:10267600070B066E0650020DBC0EF324D96E000E33
:10268600F420DA6EDECF07F0DDCF08F007C0D9FF01
:1026960008C0DAFF0550DF1266EF13F00350046E30
:1026A600056A0550000AD8B45BEF13F0F0EF12F09C
:1026B6000450000AD8B4F2EF12F0010AD8B423EF9E
:1026C60013F0F0EF12F0120019341A34206E205075
:1026D600D8A470EF13F072EF13F07CEF13F0000E36
:1026E600176E000E186E000E196E000E1A6EE9EFC8
:1026F60013F017C01BF018C01CF019C01DF01AC04B
:102706001EF0200E8CEF13F0D8901E321D321C32B4
:102716001B32E82E87EF13F01B501F6E198EFF0E2B
:102726001716FF0E1816FF0E1916000E1A16960E1D
:10273600205E20BEA3EF13F0A1EF13F0B9EF13F064
:102746002050800A970FD8B0ABEF13F0ADEF13F01F
:10275600AFEF13F072EF13F0D8901A321932183225
:102766001732203EAFEF13F0D1EF13F01F0E2064A7
:10277600BFEF13F0C1EF13F0C9EF13F072EF13F0D0
:10278600D8901736183619361A3620062050D8A48F
:10279600CFEF13F0D1EF13F0C3EF13F01F50D8B4FF
:1027A600D7EF13F0D9EF13F0E1EF13F01A1E191E4D
:1027B600181E176C000E182219221A2217C017F0BD
:1027C60018C018F019C019F01AC01AF0120020EE3D
:1027D60008F01750D9261850DA22DFA0F5EF13F0CB
:1027E600F7EF13F057EF14F0AB8820EE0CF017500C
:1027F600D9261850DA22DECF47F0DDCF48F020EE9A
:102806000EF01750D9261850DA22DECF88F0DDCF29
:1028160089F020EE10F01750D9261850DA22DECFB4
:1028260086F0DDCF87F020EE08F01750D926185035
:10283600DA22DFA221EF14F023EF14F029EF14F0CF
:102846009D8A9D8AF28EF28C37EF14F020EE08F006
:102856001750D9261850DA22DFB234EF14F036EFCB
:1028660014F037EF14F09D9A20EE08F01750D92691
:102876001850DA22DFA442EF14F044EF14F047EFC9
:1028860014F0AB8C57EF14F020EE08F01750D92651
:102896001850DA22DFB452EF14F054EF14F057EF69
:1028A60014F0AB9C57EF14F0120020EE06F0175010
:1028B600D9261850DA22DFA063EF14F065EF14F082
:1028C600B1EF14F0AC8A20EE0AF01750D926185052
:1028D600DA22DECF8AF0DDCF8BF020EE06F017503D
:1028E600D9261850DA22DFA27BEF14F07DEF14F020
:1028F60083EF14F09D889D88F28EF28C91EF14F090
:1029060020EE06F01750D9261850DA22DFB28EEFE5
:1029160014F090EF14F091EF14F09D9820EE06F06D
:102926001750D9261850DA22DFA49CEF14F09EEF38
:1029360014F0A1EF14F0AC8CB1EF14F020EE06F019
:102946001750D9261850DA22DFB4ACEF14F0AEEFE8
:1029560014F0B1EF14F0AC9CB1EF14F01200010EBC
:102966000D6E0A500B10D8A4BBEF14F0BDEF14F097
:10297600C1EF14F0000E0D6EF0EF14F059C00EF01A
:102986000AC0D9FF0BC0DAFFDF500F0B0C6E0E50DA
:102996000C18F80B0C180E6E0AC0D9FF0BC0DAFF24
:1029A600DF38070B0C6E0C460C460C460E500C1806
:1029B600C70B0C180E6E0E9C0AC0D9FF0BC0DAFFAF
:1029C600DFAE02D00E8E01D00E9E0E0E016E000EF0
:1029D600026E010E036ED6EC12F00D501200010EBF
:1029E6000D6E0A500B10D8A4FBEF14F0FDEF14F097
:1029F60001EF15F0000E0D6E30EF15F058C00EF019
:102A06000AC0D9FF0BC0DAFFDF500F0B0C6E0E5059
:102A16000C18F80B0C180E6E0AC0D9FF0BC0DAFFA3
:102A2600DF38070B0C6E0C460C460C460E500C1885
:102A3600C70B0C180E6E0E9C0AC0D9FF0BC0DAFF2E
:102A4600DFAE02D00E8E01D00E9E0E0E016E000E6F
:102A5600026E000E036ED6EC12F00D5012005B0EE5
:102A6600016E000E026E80EC16F0630E5B18D8A4A1
:102A76003FEF15F041EF15F05AEF15F0670E0A6EAD
:102A8600000E0B6EB2EC14F0686E620ECFEC16F010
:102A9600686E030E106E080E0F6E770EE82EFED7C8
:102AA6000F2EFCD7102EFAD700F070EF15F0640E3B
:102AB6005B18D8A461EF15F063EF15F070EF15F011
:102AC600670E0A6E000E0B6EF2EC14F0686E610E65
:102AD600CFEC16F0686E4CEF15F01200010E286E62
:102AE60025502610D8A47AEF15F07CEF15F080EF6C
:102AF60015F0000E286EADEF15F05AC029F025C06E
:102B0600D9FF26C0DAFFDF500F0B276E2950271892
:102B1600F80B2718296E25C0D9FF26C0DAFFDF3843
:102B2600070B276E27462746274629502718C70B27
:102B36002718296E299C25C0D9FF26C0DAFFDFAEEB
:102B460002D0298E01D0299E290E216E000E226EFA
:102B5600AFEC15F02850120021502210D8B4B6EF71
:102B660015F0B8EF15F0C9EF15F021C0D9FF22C056
:102B7600DAFFDF30E832E832070B236E070E2364F4
:102B8600C7EF15F0C9EF15F0CDEF15F0000E246E66
:102B9600E3EF15F021C017F022C018F09EEC11F0FB
:102BA600246E21C017F022C018F021C0D9FF22C020
:102BB600DAFF000EDFBE010E196E40EC12F0246E35
:102BC600245012007C0EF66E2C0EF76E000EF86E78
:102BD60000EEB2F010EE30F00900F5CFEEFFE55052
:102BE600E150FAE1CC0EF66E2D0EF76E000EF86E81
:102BF60000EE5CF010EE0CF00900F5CFEEFFE550AC
:102C0600E150FAE100EE80F0320EEE6AE806FDE1F0
:102C160000EE47F0150EEE6AE806FDE1699069924E
:102C26000001DCEF16F00001F651F711D8A41EEFF3
:102C360016F020EF16F024EF16F0000E466E3CEF6D
:102C460016F0AB9E948E948CF6C0EAF0F7C0EBF0CB
:102C56000BEC08F0F6C017F0F7C018F058EC14F0BB
:102C6600F6C017F0F7C018F0EAEC13F0AB8E010EC1
:102C7600466E46501200800F810F820F830F840F1D
:102C8600890F8A0F8B0F8C0F8D0F920F930F940F56
:102C9600950F960F8025000000000300030000003A
:102CA600642A0000000047504810D8B45DEF16F0C3
:102CB6005FEF16F06DEF16F002D86BEF16F0050019
:102CC600FA6E4750FD6E4850FE6EFF6AFA501200CB
:102CD6006DEF16F0120014EC17F0670E256E000E5D
:102CE600266E71EC15F0686ED00E0001F66F000EC0
:102CF600F76F16EC16F0686E12009EAA85EF16F0B6
:102D060087EF16F080EF16F001C0D9FF02C0DAFF98
:102D1600AECFDFFF1200176EACA294EF16F096EF5F
:102D260016F08FEF16F09D8817C0ADFF010E12004A
:102D3600016EF2900150D8A4A3EF16F0A5EF16F09D
:102D4600A7EF16F0A7EF16F01200016EF2900150F1
:102D5600D8A4B0EF16F0B2EF16F0B4EF16F0B4EF59
:102D660016F01200016EF2900150D8A4BDEF16F0D5
:102D7600BFEF16F0C1EF16F0C1EF16F01200016EAC
:102D8600F2900150D8A4CAEF16F0CCEF16F0CEEFB1
:102D960016F0CEEF16F01200016EACA2D5EF16F0CB
:102DA600D7EF16F0D0EF16F09D8801C0ADFF010EEB
:102DB60012006EEC16F0610E8EEC16F0686EE2EF05
:102DC60016F007EF00F0685A622A1A622A0101011A
:102DD6000103A1924A50B36E49C0B2FF12009E9001
:102DE6004C50CF6E4BC0CEFF1200F2944E50D76EB1
:102DF6004DC0D6FF12009E9253C0CCFF12009E9685
:102E06001200A1961200F0921200F0901200F292B7
:102E160012009D981200A19012009E9412009E9C92
:062E260012001200120070
:020000040020DA
:08000000FFFFFFFFFFFFFFFF00
:020000040030CA
:0E000000FF020912FF8181FF0FC00FE00F40C9
:00000001FF
